:020000040800F2
:1000000000000220D90B0008D10B0008950B000856
:10001000A90B0008BD0B0008D10B00080000000070
:10002000000000000000000000000000D10B0008EC
:10003000D10B0008000000006D0B0008390B000810
:10004000D10B0008D10B0008D10B0008D10B000820
:10005000D10B0008D10B0008D10B0008D10B000810
:10006000D10B0008D10B0008D10B0008D10B000800
:10007000D10B0008D10B0008D10B0008D10B0008F0
:10008000D10B0008D10B0008D10B000800000000C4
:10009000000000000000000000000000D10B00087C
:1000A000D10B0008D10B0008D10B0008D10B0008C0
:1000B000D10B0008D10B0008D10B0008D10B0008B0
:1000C000D10B0008D10B0008D10B0008D10B0008A0
:1000D000D10B0008D10B0008D10B00080000000074
:1000E000D10B0008D10B0008D10B00080000000064
:1000F000000000000000000000000000D10B00081C
:1001000000000000D10B0008D10B0008D10B000843
:1001100000000000000000000000000000000000DF
:10012000D10B0008D10B0008D10B0008D10B00083F
:10013000D10B0008000000000000000000000000DB
:10014000000000000000000000000000D10B0008CB
:10015000D10B0008D10B0008D10B0008D10B00080F
:10016000D10B0008D10B00080000000000000000C7
:10017000000000000000000000000000000000007F
:10018000000000000000000000000000000000006F
:10019000D10B0008D10B000810B5054C237833B9FA
:1001A000044B13B10448AFF300800123237010BD4A
:1001B00070000020000000008418000808B5034B00
:1001C0001BB103490348AFF3008008BD00000000E5
:1001D0007400002084180008A3F5803A704700BF1F
:1001E000174B002B08BF134B9D46FFF7F5FF00216F
:1001F0008B460F461348144A121A00F0CDFF0E4BDF
:10020000002B00D098470D4B002B00D098470020C2
:10021000002104000D000D48002802D00C48AFF367
:10022000008001F063F82000290000F013F800F0CE
:1002300019FD00BF000008000000000000000000E1
:1002400000000000700000203802002000000000C4
:100250000000000080B500AF00F098FB4FF47A700A
:1002600000F0A4FA074800F0DFFA00F0E3FA00F02B
:1002700051F800F07DFB00F0C5FA00F005F800230E
:10028000184680BD00EC012080B500AF0A2000F0C8
:1002900003F940F2DC5000F0E1FB0A2000F08CF89A
:1002A00040F2DC5000F0DAFB00BFEFE780B500AFB2
:1002B0000F2000F0F1F8FA2000F0D0FB0F2000F042
:1002C0007BF8FA2000F0CAFB00BFF1E780B500AF71
:1002D000072000F0E1F84FF47A7000F0BFFB072030
:1002E00000F06AF84FF47A7000F0B8FB00BFEFE757
:1002F00080B500AF022000F0CFF84FF4FA7000F0A4
:10030000ADFB022000F058F84FF4FA7000F0A6FBA5
:1003100000BFEFE780B584B000AF234BFB60234BF9
:10032000BB60234B7B60234B3B60FB681B6843F047
:100330000702FB681A60BB684FF028421A60BB686E
:100340001B6823F04042BB681A60BB681B6843F01F
:100350008042BB681A603B6800221A603B681B68D9
:1003600043F480123B681A603B681B6843F010023C
:100370003B681A607B684FF420721A607B681B68C8
:1003800043F480427B681A600A2000F015F80F20C1
:1003900000F012F8072000F00FF8022000F00CF82F
:1003A00000BF1037BD4680BD30380240000002401B
:1003B000000402400008024080B487B000AF03464A
:1003C000FB71FB79023B0D2B5AD801A252F823F0A6
:1003D0006304000881040008810400088104000807
:1003E0008104000845040008810400088104000815
:1003F0000904000881040008810400088104000841
:100400008104000827040008204B3B613B691B68FE
:1004100023F480623B691A603B691B6843F0806289
:100420003B691A602DE01A4B7B617B691B6823F4E2
:1004300000427B691A607B691B6843F000427B695C
:100440001A601EE0134BFB60FB681B6823F0800200
:10045000FB681A60FB681B6843F40002FB681A60C3
:100460000FE00A4BBB60BB681B6823F00402BB684B
:100470001A60BB681B6843F48022BB681A6000E006
:1004800000BF00BF1C37BD4680BC70471808024043
:10049000180002401804024080B487B000AF034641
:1004A000FB71FB79023B0D2B42D801A252F823F0DD
:1004B0001F05000831050008310500083105000856
:1004C000310500080D050008310500083105000858
:1004D000E90400083105000831050008310500086D
:1004E00031050008FB040008144B3B613B691B68A5
:1004F00043F480623B691A601BE0114B7B617B69AE
:100500001B6843F400427B691A6012E00D4BFB60EC
:10051000FB681B6843F08002FB681A6009E0074B28
:10052000BB60BB681B6843F00402BB681A6000E054
:1005300000BF00BF1C37BD4680BC70471808024092
:10054000180002401804024080B400AF00BFBD464E
:1005500080BC704780B400AF01231846BD4680BC04
:10056000704780B582B000AF7860396000F0B8FEA7
:10057000034616221A604FF0FF3318460837BD466F
:1005800080BD80B582B000AF78604FF0FF317868F1
:10059000FFF7E7FF00BFFDE780B586B000AFF8606A
:1005A000B9607A6000237B610AE0AFF30080014606
:1005B000BB685A1CBA60CAB21A707B6901337B618E
:1005C0007A697B689A42F0DB7B6818461837BD462B
:1005D00080BD80B586B000AFF860B9607A60002356
:1005E0007B6109E0BB685A1CBA601B781846AFF300
:1005F00000807B6901337B617A697B689A42F1DB19
:100600007B6818461837BD4680BD80B483B000AF04
:1006100078604FF0FF3318460C37BD4680BC7047FA
:1006200080B483B000AF786039603B684FF400520B
:100630005A60002318460C37BD4680BC704780B412
:1006400083B000AF7860012318460C37BD4680BCEC
:10065000704780B485B000AFF860B9607A6000235D
:1006600018461437BD4680BC70470EB480B482B0C3
:1006700000AF78604FF0FF3318460837BD4680BCA6
:1006800003B0704780B582B000AF786000F028FEFC
:1006900003460A221A604FF0FF3318460837BD465A
:1006A00080BD80B582B000AF786000F019FE0346CF
:1006B00002221A604FF0FF3318460837BD4680BD4E
:1006C00080B483B000AF78604FF0FF3318460C372A
:1006D000BD4680BC704780B483B000AF786039609D
:1006E0003B684FF400525A60002318460C37BD4651
:1006F00080BC704780B582B000AF7860396000F090
:10070000EFFD03461F221A604FF0FF3318460837EB
:10071000BD4680BD80B500AF00F0E2FD03460B2270
:100720001A604FF0FF33184680BD80B584B000AF2B
:10073000F860B9607A6000F0D3FD03460C221A60BD
:100740004FF0FF3318461037BD4680BD80B584B0EA
:1007500000AF7860114B1B68002B02D10F4B104A81
:100760001A600E4B1B68FB600C4B1A687B681344C5
:100770006A46934207D900F0B3FD03460C221A6083
:100780004FF0FF3306E0054B1A687B681344034AB9
:100790001360FB6818461037BD4680BD90000020EE
:1007A0003802002080B400AF00BFFDE780B487B0FE
:1007B00000AF7860104B7B61104B3B61104A7B6847
:1007C000B2FBF3F3013BFB607B691B6803F07F42E4
:1007D0007B691A607B691A68FB681A437B691A6037
:1007E0003B691B6843F006023B691A6000BF1C3777
:1007F000BD4680BC704700BF14E000E010E000E0A0
:100800000024F40080B483B000AF064B7B607B68AB
:100810001B6843F001027B681A6000BF0C37BD46BD
:1008200080BC704710E000E0034683F308887047FF
:1008300000BF000080B483B000AF3A4B00221A72B0
:10084000384B00221A76374B002283F82820354B8C
:10085000002283F83820334B002283F84820314BA4
:10086000314A1A602F4B314A1A612E4B304A1A62B4
:100870002C4B304A1A632B4B2F4A1A64294B2F4AB0
:10088000DA60284B2E4ADA61264B2E4ADA62254B73
:100890002D4ADA63234B2D4ADA640023FB7037E0DC
:1008A000FB78204A1B0113441B687B607B68043B78
:1008B0007B607B684FF080721A607B68043B7B60D2
:1008C000FB78184A1B0113440C331B681A467B68DB
:1008D0001A607B68043B7B607B686FF002021A60E1
:1008E0000023BB7008E07B68043B7B607B680022D0
:1008F0001A60BB780133BB70BB780C2BF3D9FB7843
:100900007A6808491B010B441A60FB780133FB70BD
:10091000FB78042BC4D900BF00BF0C37BD4680BC98
:10092000704700BF9400002000F00120000002206A
:1009300000FC012000F8012000F40120A5070008B8
:1009400089020008AD020008CD020008F10200088B
:1009500080B400AF044B1B78044A1B0113441B688E
:100960001846BD4680BC7047080000209400002057
:1009700000B5FFF7EDFF80F309885DF804EB4FF059
:10098000020080F31488704700BF000080B483B079
:1009900000AF064B7B607B681B6843F4E0227B68FA
:1009A0001A6000BF0C37BD4680BC704724ED00E0E4
:1009B00080B483B000AF7860054B1B78054A1B01FB
:1009C00013447A681A6000BF0C37BD4680BC70477C
:1009D000080000209400002080B483B000AF002302
:1009E000BB7124E01A4B1B780133DAB2184B1A7032
:1009F000174B1A78174BA3FB021399080B469B0061
:100A00000B44D31ADAB2124B1A70114B1B78124AEC
:100A10001B01134408331B78FB71FB79002B03D1B6
:100A20000B4B1B78002B06D1BB790133BB71BB7913
:100A3000042BD7D900E000BFFB79002B02D0044B78
:100A400000221A7000BF0C37BD4680BC704700BF43
:100A500008000020CDCCCCCC9400002080B582B022
:100A600000AF78604FF0010080F310880E4B1A68D9
:100A70000E4B1B7818467B681A440D4903010B4442
:100A800004331A60094B1B78094A1B0113440833CD
:100A900001221A7000F03EF84FF0000080F3108839
:100AA00000BF0837BD4680BDE400002008000020DC
:100AB0009400002080B483B000AF0123FB711BE0E1
:100AC000FB79124A1B01134408331B78002B10D00A
:100AD000FB790E4A1B01134404331A680C4B1B6844
:100AE0009A4206D8FB79094A1B01134408330022B5
:100AF0001A70FB790133FB71FB79042BE0D900BF3D
:100B000000BF0C37BD4680BC704700BF940000207A
:100B1000E400002080B483B000AF064B7B607B68AC
:100B20001B6843F080527B681A6000BF0C37BD46DB
:100B300080BC704704ED00E080B582B000AF094B87
:100B40001B680133074A1360FFF7B4FF064B7B6055
:100B50007B681B6843F080527B681A6000BF0837CF
:100B6000BD4680BDE400002004ED00E0EFF3098005
:100B700020E9F00F00B5FFF71BFFFFF72DFFFFF790
:100B8000E7FEB0E8F00F80F309885DF804EB7047EA
:100B900000BF000080B500AF024800F013FA00BFAC
:100BA000FDE700BF1818000880B500AF024800F04C
:100BB00009FA00BFFDE700BF3018000880B500AF9C
:100BC000024800F0FFF900BFFDE700BF4818000829
:100BD00080B400AF00BFFDE780B586B000AF1C4A0F
:100BE0001C4BD31A9B107B601B4B7B61194B3B61E9
:100BF0000023FB600AE07A69131D7B613B69191DC4
:100C0000396112681A60FB680133FB60FA687B681F
:100C10009A42F0D3114A124BD31A9B107B60104BAF
:100C20003B610023BB6007E03B691A1D3A6100226B
:100C30001A60BB680133BB60BA687B689A42F3D321
:100C400000F054FBFFF706FB00BF1837BD4680BD20
:100C500068000020000000209018000838020020E2
:100C60007000002008B5064B044613B10021AFF315
:100C70000080044B1B6803B198472046FFF781FCB6
:100C80000000000020020020002310B50446C0E947
:100C90000033C0E90433836081814366C28183618C
:100CA000194608225C3000F077FA0D4B63620D4B59
:100CB000A3620D4BE3620D4B23630D4B24629C42F8
:100CC00006D003F16802944202D0D0339C4205D191
:100CD00004F15800BDE8104000F02DBB10BD00BF6E
:100CE000D50F0008FB0F000833100008571000084C
:100CF000E8000020024A0349034800F0EFB800BFB3
:100D00000C0000203D1600081C00002041680C4B20
:100D1000994210B5044601D000F090FCA168094B3F
:100D2000994202D0204600F089FCE168064B9942C6
:100D300004D02046BDE8104000F080BC10BD00BFCC
:100D4000E800002050010020B801002008B54B6EDB
:100D5000DA0705D48B899B0502D4886D00F0EFFA81
:100D6000002008BD08B54B6EDA0705D48B899B05BA
:100D700002D4886D00F0E9FA002008BD10B50B4BD5
:100D80000B4C0C4A1A60204600220421FFF77CFF1E
:100D900004F1680001220921FFF776FF04F1D00079
:100DA0000222BDE810401221FFF76EBF2002002092
:100DB000E8000020F50C0008014800F0C0BA00BFB0
:100DC0002F020020014800F0C0BA00BF2F0200200F
:100DD000F8B50746FFF7F0FF234B1B680BB9FFF789
:100DE000CDFF224ED6E90134013B0FD53568002DE9
:100DF00037D14FF4D671384600F014FB044628BBB7
:100E00003060FFF7DFFF0C233B601BE0B4F90C50B0
:100E1000D5B9174BE36004F15800656600F08BFA12
:100E2000FFF7D0FFC4E90155C4E904552560A56169
:100E30000822294604F15C0000F0AEF9C4E90D5522
:100E4000C4E912552046F8BD6834CDE70423056097
:100E500043600C30A0604FF4D072294600F09CF93A
:100E600034603668BEE700BF200200200C0000207E
:100E70000100FFFF10B50446FFF79EFF236A1BB178
:100E8000BDE81040FFF79EBF044B2362044B1B6874
:100E9000002BF5D1FFF772FFF2E700BF0D0D000840
:100EA0002002002008B5FFF787FFBDE80840024A8E
:100EB0000249002000F012B80C0000204D0D00087F
:100EC00008B5044A0449002000F008F8BDE80840CD
:100ED000FFF778BF0C000020650D00082DE9F843EE
:100EE0000746884614460026D4E90195B9F1010960
:100EF00005D52468002CF7D13046BDE8F883AB89CE
:100F0000012B07D9B5F90E30013303D029463846F5
:100F1000C04706436835E9E7036A70B5846805464B
:100F20000E460BB9FFF7A6FF636EDB0705D4A38956
:100F3000980502D4A06D00F002FAA389190702D522
:100F40002369002B35D12146284600F0CFF880B325
:100F50004FF0FF35636EDA0705D4A3899B0502D4F1
:100F6000A06D00F0F2F9284670BD002B04DAA269EA
:100F70009A4217DC0A2915D023685A1C226019707E
:100F8000A36816F8011F013BA3600029EDD1002BD7
:100F900011DA22460A21284600F061F80130D7D044
:100FA0000A25D7E72246284600F059F80130E7D154
:100FB000CEE7013EE4E723685A1C22600A221A7039
:100FC000EEE70000024B01461868FFF7A5BF00BF1F
:100FD0001800002010B50C46B1F90E1000F05CF9B5
:100FE0000028ABBF636DA3891B1823F48053ACBFEB
:100FF0006365A38110BD002070472DE9F0411F46B5
:101000008B89DB0505460C46164605D5B1F90E1051
:101010000223002200F02EF9A389B4F90E1023F464
:101020008053A38132463B462846BDE8F04100F09C
:1010300045B910B50C46B1F90E1000F01BF9431C70
:10104000A38915BF606523F4805343F48053A381C3
:1010500018BFA38110BDB1F90E1000F0A5B8F8B506
:101060000E461446054618B1036A0BB9FFF702FF96
:10107000A369A360A3891A0701D5236943B921464F
:10108000284600F033F818B14FF0FF373846F8BD66
:1010900023682269981A6369F6B28342374605DCF1
:1010A0002146284600F0CAFA0028EDD1A368013B8A
:1010B000A36023685A1C22601E706269431C9A4216
:1010C00004D0A389DB07E1D50A2EDFD121462846CB
:1010D00000F0B4FA0028D9D0D6E70000024B0A4647
:1010E00001461868FFF7BBBF1800002038B5294B30
:1010F000054618680C4618B1036A0BB9FFF7BAFE2B
:10110000B4F90C30190722D4DA0607D409222A6070
:1011100043F04003A3814FF0FF3033E0580712D56E
:10112000616B41B104F14403994202D0284600F0BA
:101130000DF900236363A38923F02403A381002313
:10114000636023692360A38943F00803A3812369B3
:101150004BB9A38903F42073B3F5007F03D0214674
:10116000284600F0CDFAB4F90C3013F001020AD091
:101170000022A26062695242A261226942B913F060
:101180008000C5D138BD990758BF6269A260F4E7F5
:101190000020F7E71800002002440346934200D1E4
:1011A000704703F8011BF9E738B5064D00230446E4
:1011B00008462B60FFF729FA431C02D12B6803B1C4
:1011C000236038BD24020020294B1B68834270B580
:1011D00004464BD0C369ABB1DB686BB10025E36952
:1011E000DB68595900293BD10435802DF7D1E369DB
:1011F0002046D96800F0AAF8E369196811B12046C1
:1012000000F0A4F8616911B1204600F09FF8E1698F
:1012100011B1204600F09AF8216B11B1204600F080
:1012200095F8616B11B1204600F090F8A16B11B1F7
:10123000204600F08BF8A16C11B1204600F086F832
:10124000616C11B1204600F081F8E16A11B12046CD
:1012500000F07CF8236A4BB12046BDE87040184787
:101260000E68204600F072F83146BBE770BD00BF43
:101270001800002038B5074D0446084611460022E4
:101280002A601A46FFF7E5F9431C02D12B6803B127
:10129000236038BD2402002038B5074D04460846B7
:1012A000114600222A601A46FFF776F9431C02D144
:1012B0002B6803B1236038BD2402002038B5074DE8
:1012C00004460846114600222A601A46FFF781F9B3
:1012D000431C02D12B6803B1236038BD24020020D7
:1012E000014B1868704700BF1800002070B50D4D05
:1012F0000D4C641BA4100026A64209D10B4D0C4CCA
:1013000000F06CFA641BA4100026A64205D170BD43
:1013100055F8043B98470136EEE755F8043B9847EB
:101320000136F2E7000000000000000000000000AD
:101330000000000070477047704770477047704763
:1013400001207047012070477047704738B5054647
:10135000002941D051F8043C0C1F002BB8BFE41801
:1013600000F0E0F81D4A136833B963601460284642
:10137000BDE8384000F0DCB8A34208D92068211845
:101380008B4201BF19685B6809182160EDE71A46B6
:101390005B680BB1A342FAD911685018A0420BD177
:1013A00020680144501883421160E0D118685B68DE
:1013B000536008441060DAE702D90C232B60D6E7AB
:1013C000206821188B4204BF19685B68636004BF02
:1013D000091821605460CAE738BD00BF34020020FC
:1013E00070B50F4E0C463168054611B900F0E6F9AC
:1013F00030602146284600F0E1F9431C03D14FF04C
:10140000FF34204670BDC41C24F00304A042F8D071
:10141000211A284600F0D2F90130F2D1EFE700BFDF
:10142000300200202DE9F843CD1C25F003050835D6
:101430000C2D38BF0C25002D064601DBA94204D92E
:101440000C2333600020BDE8F883DFF8D48000F07F
:1014500069F8D8F800301C4644BB29463046FFF7EF
:10146000BFFF431C044658D1D8F800402746002F40
:1014700043D1002C4BD023683946304604EB030996
:1014800000F09CF9814542D121686D1A2946304609
:10149000FFF7A6FF01303AD023682B442360D8F829
:1014A00000305A6862BBC8F800700FE02268521B17
:1014B00020D40B2A17D96119A342256018BF59609F
:1014C000636808BFC8F8001062514B60304600F0F6
:1014D0002FF804F10B00231D20F00700C21A1CBFD7
:1014E0001B1AA350AFE76268A3420CBFC8F80020E4
:1014F0005A60EBE723466468AEE73C467F68B6E790
:101500001A465B68A342FBD100235360DEE70C233D
:101510003360304600F00CF894E70560D6E700BF72
:10152000340200200148FFF70ABF00BF2C02002050
:101530000148FFF70ABF00BF2C020020B1F90C20C0
:10154000F8B5160705460C4654D44B68002B02DC50
:101550000B6C002B48DDE66A002E45D0002312F408
:1015600080522F68216A2B6030D0626DA3895907A1
:1015700005D56368D21A636B0BB1236CD21A0023B2
:10158000E66A216A2846B047431CA38906D1296828
:101590001D292BD8284A0A41D60727D40022626089
:1015A000D9042269226004D5421C01D12B6803B9F9
:1015B0006065616B2F60B9B104F14403994202D0B8
:1015C0002846FFF7C3FE002363630DE0012328468E
:1015D000B0470246501CC9D12B68002BC6D01D2B2A
:1015E00001D0162B1DD12F60002021E043F04003D5
:1015F0001BB21AE00F69002FF6D093070E6808BFE0
:101600004B690F6018BF0023F61B8B60002EEBDDCB
:10161000216AD4F828C033463A462846E0470028D5
:1016200007DCB4F90C3043F04003A3814FF0FF30E6
:10163000F8BD0744361AE9E7FEFFBFDF38B50B698E
:1016400005460C4613B90025284638BD18B1036A73
:101650000BB9FFF70FFCB4F90C30002BF3D0626E1E
:10166000D00704D4990502D4A06DFFF768FE284680
:101670002146FFF763FF636EDA070546E4D4A389CA
:101680009B05E1D4A06DFFF760FEDDE7014620B9C0
:10169000044A05490548FFF721BC054B1868FFF7C8
:1016A000CDBF00BF0C0000203D1600081C0000202C
:1016B0001800002070B50C46B1F90E10002996B044
:1016C00015461E460DDAA38913F0800F4FF0000176
:1016D00014BF40234FF48063002031602B6016B0AC
:1016E00070BD6A4600F048F80028ECDB019901F46F
:1016F0007041A1F50053594259414FF48063EBE723
:101700008B89F7B59D0706460C4607D504F14703BC
:10171000236023610123636103B0F0BD01AB6A461E
:10172000FFF7C8FF009F054639463046FFF77AFEAF
:1017300048B9B4F90C309A05EED423F0030343F012
:101740000203A381E2E7A389206043F08003A38121
:10175000019BC4E904075BB1B4F90E10304600F0F8
:101760001DF828B1A38923F0030343F00103A381EB
:10177000A3891D43A581CFE738B5074D0023044653
:10178000084611462B60FEF74BFF431C02D12B6825
:1017900003B1236038BD00BF2402002038B5064DD8
:1017A0000023044608462B60FEF749FF431C02D184
:1017B0002B6803B1236038BD2402002038B5064DE4
:1017C0000023044608462B60FEF7C0FF431C02D1ED
:1017D0002B6803B1236038BD24020020F8B500BF98
:1017E000F8BC08BC9E467047F8B500BFF8BC08BC02
:1017F0009E4670473D400B40104026403540034018
:10180000064014400E400D40254012402840024042
:10181000184009400A400000457863657074696F9C
:101820006E203A20486172646661756C7400000035
:10183000457863657074696F6E203A204D656D4D13
:10184000616E616765000000457863657074696F5B
:101850006E203A204275734661756C74000000007A
:101860003D400B40104026403540034006401440A8
:101870000E400D40254012402840024018400940CB
:041880000A4000001A
:041884000000000060
:0818880050E9FF7F01000000A0
:10189000000000008C00002001000000000000009B
:1018A00003000000E80000201C00002000000000F1
:1018B000E800002050010020B801002000000000D6
:1018C0000000000000000000000000000000000018
:1018D0000000000000000000000000000000000008
:1018E00000000000000000000000000000000000F8
:0818F0000000000000000000F0
:0418F800BD01000826
:0418FC009901000846
:0400000508000BD90B
:00000001FF
